{
  "contractName": "RealmBase",
  "abi": [
    {
      "inputs": [],
      "payable": false,
      "stateMutability": "nonpayable",
      "type": "constructor"
    },
    {
      "anonymous": false,
      "inputs": [
        {
          "indexed": false,
          "name": "tileId",
          "type": "uint256"
        }
      ],
      "name": "UpdatedTile",
      "type": "event"
    },
    {
      "constant": false,
      "inputs": [
        {
          "name": "_id",
          "type": "uint256"
        }
      ],
      "name": "ClaimTile",
      "outputs": [
        {
          "name": "",
          "type": "bool"
        }
      ],
      "payable": false,
      "stateMutability": "nonpayable",
      "type": "function"
    },
    {
      "constant": true,
      "inputs": [],
      "name": "GetTileCount",
      "outputs": [
        {
          "name": "",
          "type": "uint256"
        }
      ],
      "payable": false,
      "stateMutability": "view",
      "type": "function"
    },
    {
      "constant": true,
      "inputs": [
        {
          "name": "_id",
          "type": "uint256"
        }
      ],
      "name": "GetTile",
      "outputs": [
        {
          "name": "",
          "type": "address"
        },
        {
          "name": "",
          "type": "int256"
        },
        {
          "name": "",
          "type": "int256"
        }
      ],
      "payable": false,
      "stateMutability": "view",
      "type": "function"
    }
  ],
  "bytecode": "0x608060405234801561001057600080fd5b506100256000806401000000006100ac810204565b61003b60006000196401000000006100ac810204565b610050600060016401000000006100ac810204565b61006660001960006401000000006100ac810204565b61007b600160006401000000006100ac810204565b61009160016000196401000000006100ac810204565b6100a760001960016401000000006100ac810204565b61013b565b604080518082018252838152602080820184815260008054600181810183558280529451600282027f290decd9548b62a8d60345a988386fc84ba6bc95484008f6362f93160ef3e56381019190915592517f290decd9548b62a8d60345a988386fc84ba6bc95484008f6362f93160ef3e564909301929092559586529181528285209385529290925290912055565b6104618061014a6000396000f3006080604052600436106100565763ffffffff7c01000000000000000000000000000000000000000000000000000000006000350416635e3abbc2811461005b57806373a654a114610082578063ad70a304146100ae575b600080fd5b34801561006757600080fd5b506100706100fb565b60408051918252519081900360200190f35b34801561008e57600080fd5b5061009a600435610101565b604080519115158252519081900360200190f35b3480156100ba57600080fd5b506100c66004356102e2565b6040805173ffffffffffffffffffffffffffffffffffffffff9094168452602084019290925282820152519081900360600190f35b60005490565b600081815260026020526040812054819073ffffffffffffffffffffffffffffffffffffffff161561013257600080fd5b600080548490811061014057fe5b906000526020600020906002020190506101658160000154600101826001015461035c565b151561018057610180816000015460010182600101546103a6565b6101958160000154826001015460010161035c565b15156101b0576101b0816000015482600101546001016103a6565b6101c56001826000015403826001015461035c565b15156101e0576101e0600182600001540382600101546103a6565b6101f58160000154600183600101540361035c565b151561021057610210816000015460018360010154036103a6565b6102288160000154600101600183600101540361035c565b151561024657610246816000015460010160018360010154036103a6565b61025e6001826000015403826001015460010161035c565b151561027c5761027c600182600001540382600101546001016103a6565b600083815260026020908152604091829020805473ffffffffffffffffffffffffffffffffffffffff191633179055815185815291517fe7cf1150c7ef6281db8af87ecf7e8232f21b90cd4ea3db46091685832aade90b9281900390910190a150919050565b60008181526002602052604081205481548291829173ffffffffffffffffffffffffffffffffffffffff9091169082908690811061031c57fe5b90600052602060002090600202016000015460008681548110151561033d57fe5b9060005260206000209060020201600101549250925092509193909250565b6000821580159061036c57508115155b801561038f57506000838152600160209081526040808320858452909152902054155b1561039c575060006103a0565b5060015b92915050565b604080518082018252838152602080820184815260008054600181810183558280529451600282027f290decd9548b62a8d60345a988386fc84ba6bc95484008f6362f93160ef3e56381019190915592517f290decd9548b62a8d60345a988386fc84ba6bc95484008f6362f93160ef3e5649093019290925595865291815282852093855292909252909120555600a165627a7a723058200307bc3d8380b6052123870fc1a276878cdf4c8da40a9c93599f31fc34ca52800029",
  "source": "pragma solidity ^0.4.4;\r\n\r\nimport \"openzeppelin-solidity/contracts/ownership/Ownable.sol\";\r\nimport \"openzeppelin-solidity/contracts/Math/SafeMath.sol\";\r\n\r\ncontract RealmBase {\r\n    // Imports\r\n    using SafeMath for uint256;\r\n    // Events\r\n    event UpdatedTile(uint tileId);\r\n    \r\n    // Structs\r\n    struct Tile {\r\n        int x;\r\n        int y;\r\n    }\r\n\r\n    // -- Storage --\r\n    // World\r\n    Tile[] tiles;\r\n    mapping(int => mapping(int => uint)) positionToTileId;\r\n    mapping (uint => address) tileIdToOwner;\r\n\r\n    // Maps\r\n    // mapping (uint256 => address) public guyIndexToOwner;\r\n    // mapping (address => uint256) ownershipCount;\r\n\r\n    function RealmBase() {\r\n        // Create base tiles\r\n\r\n        // Genesis tile! id = 0\r\n        createTile(0, 0);\r\n\r\n        createTile(0, -1);\r\n        createTile(0, 1);\r\n        createTile(-1, 0);\r\n        createTile(1, 0);\r\n        createTile(1, -1);\r\n        createTile(-1, 1);\r\n    }\r\n\r\n    function createTile(int _x, int _y) internal {\r\n        // TODO - make sure position isn't already occupied\r\n        //   and that it is valid (next to another tile)\r\n        uint id = tiles.push(Tile(_x, _y)) - 1;\r\n        positionToTileId[_x][_y] = id;\r\n    }\r\n\r\n    function tileExists(int _x, int _y) internal view returns(bool) {\r\n        if (_x != 0 && _y != 0 && (positionToTileId[_x][_y] == 0)) {\r\n            return false;\r\n        }\r\n        return true;\r\n    }\r\n    \r\n    /** @dev function for creating a new \"guy\"\r\n      * @return worked Whether or not claim went through\r\n      */\r\n    function ClaimTile(uint _id) public returns(bool) {\r\n        require(tileIdToOwner[_id] == address(0));\r\n\r\n        // If we are claiming a tile for the first time\r\n        Tile t = tiles[_id];\r\n        if (!tileExists(t.x+1, t.y)) {\r\n            createTile(t.x+1, t.y);\r\n        }\r\n        if (!tileExists(t.x, t.y+1)) {\r\n            createTile(t.x, t.y+1);\r\n        }\r\n        if (!tileExists(t.x-1, t.y)) {\r\n            createTile(t.x-1, t.y);\r\n        }\r\n        if (!tileExists(t.x, t.y-1)) {\r\n            createTile(t.x, t.y-1);\r\n        }\r\n        if (!tileExists(t.x+1, t.y-1)) {\r\n            createTile(t.x+1, t.y-1);\r\n        }\r\n        if (!tileExists(t.x-1, t.y+1)) {\r\n            createTile(t.x-1, t.y+1);\r\n        }\r\n\r\n        tileIdToOwner[_id] = msg.sender;\r\n        emit UpdatedTile(_id);\r\n        // emit NewGuy(id, _name, _dna);\r\n    }\r\n\r\n    /** @dev Returns the amount of tiles in the world\r\n      * @return length The length of tiles in the world.\r\n      */\r\n    function GetTileCount() public view returns(uint) {\r\n        return tiles.length;\r\n    }\r\n\r\n    /** @dev Gets data for a specific tile in the world\r\n      * @param _id id of the tile to get data for.\r\n      * @return owner The address of the owner of this tile.\r\n      * @return x The x position of this tile.\r\n      * @return y The y position of this tile.\r\n      */\r\n    function GetTile(uint _id) public view returns(address, int, int) {\r\n        return (tileIdToOwner[_id], tiles[_id].x, tiles[_id].y);\r\n    }\r\n \r\n}\r\n  ",
  "sourcePath": "/Users/Zac/Documents/Code/GitHub/Truffle/cryptorealm/contracts/RealmBase.sol",
  "compiler": {
    "name": "solc",
    "version": "0.4.24+commit.e67f0147.Emscripten.clang"
  },
  "schemaVersion": "2.0.0",
  "updatedAt": "2018-06-19T01:20:11.473Z"
}